{
  "_format": "hh-sol-artifact-1",
  "contractName": "VeripactReputation",
  "sourceName": "contracts/VeripactReputation.sol",
  "abi": [
    {
      "inputs": [],
      "stateMutability": "nonpayable",
      "type": "constructor"
    },
    {
      "inputs": [
        {
          "internalType": "address",
          "name": "target",
          "type": "address"
        }
      ],
      "name": "AddressEmptyCode",
      "type": "error"
    },
    {
      "inputs": [
        {
          "internalType": "address",
          "name": "implementation",
          "type": "address"
        }
      ],
      "name": "ERC1967InvalidImplementation",
      "type": "error"
    },
    {
      "inputs": [],
      "name": "ERC1967NonPayable",
      "type": "error"
    },
    {
      "inputs": [],
      "name": "FailedCall",
      "type": "error"
    },
    {
      "inputs": [],
      "name": "InvalidInitialization",
      "type": "error"
    },
    {
      "inputs": [],
      "name": "NotInitializing",
      "type": "error"
    },
    {
      "inputs": [
        {
          "internalType": "address",
          "name": "owner",
          "type": "address"
        }
      ],
      "name": "OwnableInvalidOwner",
      "type": "error"
    },
    {
      "inputs": [
        {
          "internalType": "address",
          "name": "account",
          "type": "address"
        }
      ],
      "name": "OwnableUnauthorizedAccount",
      "type": "error"
    },
    {
      "inputs": [],
      "name": "UUPSUnauthorizedCallContext",
      "type": "error"
    },
    {
      "inputs": [
        {
          "internalType": "bytes32",
          "name": "slot",
          "type": "bytes32"
        }
      ],
      "name": "UUPSUnsupportedProxiableUUID",
      "type": "error"
    },
    {
      "anonymous": false,
      "inputs": [
        {
          "indexed": true,
          "internalType": "address",
          "name": "user",
          "type": "address"
        },
        {
          "indexed": true,
          "internalType": "bytes32",
          "name": "badgeId",
          "type": "bytes32"
        }
      ],
      "name": "BadgeGranted",
      "type": "event"
    },
    {
      "anonymous": false,
      "inputs": [
        {
          "indexed": false,
          "internalType": "uint64",
          "name": "version",
          "type": "uint64"
        }
      ],
      "name": "Initialized",
      "type": "event"
    },
    {
      "anonymous": false,
      "inputs": [
        {
          "indexed": true,
          "internalType": "address",
          "name": "previousOwner",
          "type": "address"
        },
        {
          "indexed": true,
          "internalType": "address",
          "name": "newOwner",
          "type": "address"
        }
      ],
      "name": "OwnershipTransferred",
      "type": "event"
    },
    {
      "anonymous": false,
      "inputs": [
        {
          "indexed": true,
          "internalType": "address",
          "name": "seller",
          "type": "address"
        },
        {
          "indexed": true,
          "internalType": "address",
          "name": "buyer",
          "type": "address"
        },
        {
          "indexed": true,
          "internalType": "bytes32",
          "name": "nicheId",
          "type": "bytes32"
        },
        {
          "indexed": false,
          "internalType": "uint256",
          "name": "volume",
          "type": "uint256"
        }
      ],
      "name": "TransactionVerified",
      "type": "event"
    },
    {
      "anonymous": false,
      "inputs": [
        {
          "indexed": true,
          "internalType": "address",
          "name": "implementation",
          "type": "address"
        }
      ],
      "name": "Upgraded",
      "type": "event"
    },
    {
      "inputs": [],
      "name": "UPGRADE_INTERFACE_VERSION",
      "outputs": [
        {
          "internalType": "string",
          "name": "",
          "type": "string"
        }
      ],
      "stateMutability": "view",
      "type": "function"
    },
    {
      "inputs": [
        {
          "internalType": "address",
          "name": "seller",
          "type": "address"
        },
        {
          "internalType": "address",
          "name": "buyer",
          "type": "address"
        },
        {
          "internalType": "bytes32",
          "name": "nicheId",
          "type": "bytes32"
        },
        {
          "internalType": "uint256",
          "name": "volumeUSDC",
          "type": "uint256"
        },
        {
          "internalType": "bytes32",
          "name": "txHash",
          "type": "bytes32"
        }
      ],
      "name": "addVerifiedOffchainTransaction",
      "outputs": [],
      "stateMutability": "nonpayable",
      "type": "function"
    },
    {
      "inputs": [
        {
          "internalType": "address",
          "name": "user",
          "type": "address"
        },
        {
          "internalType": "bytes32",
          "name": "nicheId",
          "type": "bytes32"
        }
      ],
      "name": "getNicheProfile",
      "outputs": [
        {
          "components": [
            {
              "components": [
                {
                  "internalType": "uint256",
                  "name": "successfulTxCount",
                  "type": "uint256"
                },
                {
                  "internalType": "uint256",
                  "name": "totalVolumeUSDC",
                  "type": "uint256"
                }
              ],
              "internalType": "struct VeripactReputation.RoleMetrics",
              "name": "asSeller",
              "type": "tuple"
            },
            {
              "components": [
                {
                  "internalType": "uint256",
                  "name": "successfulTxCount",
                  "type": "uint256"
                },
                {
                  "internalType": "uint256",
                  "name": "totalVolumeUSDC",
                  "type": "uint256"
                }
              ],
              "internalType": "struct VeripactReputation.RoleMetrics",
              "name": "asBuyer",
              "type": "tuple"
            }
          ],
          "internalType": "struct VeripactReputation.NicheProfile",
          "name": "",
          "type": "tuple"
        }
      ],
      "stateMutability": "view",
      "type": "function"
    },
    {
      "inputs": [
        {
          "internalType": "address",
          "name": "user",
          "type": "address"
        },
        {
          "internalType": "bytes32",
          "name": "badgeId",
          "type": "bytes32"
        }
      ],
      "name": "grantBadge",
      "outputs": [],
      "stateMutability": "nonpayable",
      "type": "function"
    },
    {
      "inputs": [
        {
          "internalType": "address",
          "name": "user",
          "type": "address"
        },
        {
          "internalType": "bytes32",
          "name": "badgeId",
          "type": "bytes32"
        }
      ],
      "name": "hasBadge",
      "outputs": [
        {
          "internalType": "bool",
          "name": "",
          "type": "bool"
        }
      ],
      "stateMutability": "view",
      "type": "function"
    },
    {
      "inputs": [
        {
          "internalType": "address",
          "name": "initialOwner",
          "type": "address"
        }
      ],
      "name": "initialize",
      "outputs": [],
      "stateMutability": "nonpayable",
      "type": "function"
    },
    {
      "inputs": [],
      "name": "owner",
      "outputs": [
        {
          "internalType": "address",
          "name": "",
          "type": "address"
        }
      ],
      "stateMutability": "view",
      "type": "function"
    },
    {
      "inputs": [
        {
          "internalType": "bytes32",
          "name": "",
          "type": "bytes32"
        }
      ],
      "name": "processedTransactionHashes",
      "outputs": [
        {
          "internalType": "bool",
          "name": "",
          "type": "bool"
        }
      ],
      "stateMutability": "view",
      "type": "function"
    },
    {
      "inputs": [],
      "name": "proxiableUUID",
      "outputs": [
        {
          "internalType": "bytes32",
          "name": "",
          "type": "bytes32"
        }
      ],
      "stateMutability": "view",
      "type": "function"
    },
    {
      "inputs": [],
      "name": "renounceOwnership",
      "outputs": [],
      "stateMutability": "nonpayable",
      "type": "function"
    },
    {
      "inputs": [
        {
          "internalType": "address",
          "name": "newOwner",
          "type": "address"
        }
      ],
      "name": "transferOwnership",
      "outputs": [],
      "stateMutability": "nonpayable",
      "type": "function"
    },
    {
      "inputs": [
        {
          "internalType": "address",
          "name": "newImplementation",
          "type": "address"
        },
        {
          "internalType": "bytes",
          "name": "data",
          "type": "bytes"
        }
      ],
      "name": "upgradeToAndCall",
      "outputs": [],
      "stateMutability": "payable",
      "type": "function"
    }
  ],
  "bytecode": "0x60a06040523073ffffffffffffffffffffffffffffffffffffffff1660809073ffffffffffffffffffffffffffffffffffffffff168152503480156200004457600080fd5b50620000556200005b60201b60201c565b620001ee565b60006200006d6200016560201b60201c565b90508060000160089054906101000a900460ff1615620000b9576040517ff92ee8a900000000000000000000000000000000000000000000000000000000815260040160405180910390fd5b67ffffffffffffffff80168160000160009054906101000a900467ffffffffffffffff1667ffffffffffffffff1614620001625767ffffffffffffffff8160000160006101000a81548167ffffffffffffffff021916908367ffffffffffffffff1602179055507fc7f505b2f371ae2175ee4913f4499e1f2633a7b5936321eed1cdaeb6115181d267ffffffffffffffff604051620001599190620001d1565b60405180910390a15b50565b600080620001786200018160201b60201c565b90508091505090565b60007ff0c57e16840df040f15088dc2f81fe391c3923bec73e23a9662efc9c229c6a0060001b905090565b600067ffffffffffffffff82169050919050565b620001cb81620001ac565b82525050565b6000602082019050620001e86000830184620001c0565b92915050565b608051611aac62000218600039600081816109d801528181610a2d0152610be80152611aac6000f3fe6080604052600436106100a75760003560e01c80638da5cb5b116100645780638da5cb5b146101ad578063ad3cb1cc146101d8578063c4d66de814610203578063c5fc14691461022c578063e5b48bfa14610269578063f2fde38b14610292576100a7565b806338179754146100ac5780634f1ef286146100e957806352d1902d146101055780635c33523114610130578063715018a61461016d5780637e10598514610184575b600080fd5b3480156100b857600080fd5b506100d360048036038101906100ce919061135b565b6102bb565b6040516100e091906113b6565b60405180910390f35b61010360048036038101906100fe9190611517565b610325565b005b34801561011157600080fd5b5061011a610344565b6040516101279190611582565b60405180910390f35b34801561013c57600080fd5b506101576004803603810190610152919061159d565b610377565b60405161016491906113b6565b60405180910390f35b34801561017957600080fd5b50610182610397565b005b34801561019057600080fd5b506101ab60048036038101906101a69190611600565b6103ab565b005b3480156101b957600080fd5b506101c26105d0565b6040516101cf919061168a565b60405180910390f35b3480156101e457600080fd5b506101ed610608565b6040516101fa9190611724565b60405180910390f35b34801561020f57600080fd5b5061022a60048036038101906102259190611746565b610641565b005b34801561023857600080fd5b50610253600480360381019061024e919061135b565b6107d8565b60405161026091906117e0565b60405180910390f35b34801561027557600080fd5b50610290600480360381019061028b919061135b565b610895565b005b34801561029e57600080fd5b506102b960048036038101906102b49190611746565b610950565b005b60008060008473ffffffffffffffffffffffffffffffffffffffff1673ffffffffffffffffffffffffffffffffffffffff168152602001908152602001600020600101600083815260200190815260200160002060009054906101000a900460ff16905092915050565b61032d6109d6565b61033682610abc565b6103408282610ac7565b5050565b600061034e610be6565b7f360894a13ba1a3210667c828492db98dca3e2076cc3735a920a3ca505d382bbc60001b905090565b60016020528060005260406000206000915054906101000a900460ff1681565b61039f610c6d565b6103a96000610cf4565b565b6103b3610c6d565b6001600082815260200190815260200160002060009054906101000a900460ff1615610414576040517f08c379a000000000000000000000000000000000000000000000000000000000815260040161040b9061186d565b60405180910390fd5b60008060008773ffffffffffffffffffffffffffffffffffffffff1673ffffffffffffffffffffffffffffffffffffffff16815260200190815260200160002060000160008581526020019081526020016000209050806000016000016000815480929190610482906118bc565b91905055508281600001600101600082825461049e9190611904565b9250508190555060008060008773ffffffffffffffffffffffffffffffffffffffff1673ffffffffffffffffffffffffffffffffffffffff16815260200190815260200160002060000160008681526020019081526020016000209050806002016000016000815480929190610513906118bc565b91905055508381600201600101600082825461052f9190611904565b92505081905550600180600085815260200190815260200160002060006101000a81548160ff021916908315150217905550848673ffffffffffffffffffffffffffffffffffffffff168873ffffffffffffffffffffffffffffffffffffffff167fdfa97379ab4ca4883e0f8f8f32a5c2a260c9518026d15ff3150b81cd1f64e034876040516105bf9190611947565b60405180910390a450505050505050565b6000806105db610dcb565b90508060000160009054906101000a900473ffffffffffffffffffffffffffffffffffffffff1691505090565b6040518060400160405280600581526020017f352e302e3000000000000000000000000000000000000000000000000000000081525081565b600061064b610df3565b905060008160000160089054906101000a900460ff1615905060008260000160009054906101000a900467ffffffffffffffff1690506000808267ffffffffffffffff161480156106995750825b9050600060018367ffffffffffffffff161480156106ce575060003073ffffffffffffffffffffffffffffffffffffffff163b145b9050811580156106dc575080155b15610713576040517ff92ee8a900000000000000000000000000000000000000000000000000000000815260040160405180910390fd5b60018560000160006101000a81548167ffffffffffffffff021916908367ffffffffffffffff16021790555083156107635760018560000160086101000a81548160ff0219169083151502179055505b61076c86610e07565b610774610e1b565b83156107d05760008560000160086101000a81548160ff0219169083151502179055507fc7f505b2f371ae2175ee4913f4499e1f2633a7b5936321eed1cdaeb6115181d260016040516107c791906119bb565b60405180910390a15b505050505050565b6107e0611273565b6000808473ffffffffffffffffffffffffffffffffffffffff1673ffffffffffffffffffffffffffffffffffffffff168152602001908152602001600020600001600083815260200190815260200160002060405180604001604052908160008201604051806040016040529081600082015481526020016001820154815250508152602001600282016040518060400160405290816000820154815260200160018201548152505081525050905092915050565b61089d610c6d565b60016000808473ffffffffffffffffffffffffffffffffffffffff1673ffffffffffffffffffffffffffffffffffffffff168152602001908152602001600020600101600083815260200190815260200160002060006101000a81548160ff021916908315150217905550808273ffffffffffffffffffffffffffffffffffffffff167f6285e877aaadb6280c71a665a6eeeec85f8eb5635308b2eaf29cdf2ea9cbcdbc60405160405180910390a35050565b610958610c6d565b600073ffffffffffffffffffffffffffffffffffffffff168173ffffffffffffffffffffffffffffffffffffffff16036109ca5760006040517f1e4fbdf70000000000000000000000000000000000000000000000000000000081526004016109c1919061168a565b60405180910390fd5b6109d381610cf4565b50565b7f000000000000000000000000000000000000000000000000000000000000000073ffffffffffffffffffffffffffffffffffffffff163073ffffffffffffffffffffffffffffffffffffffff161480610a8357507f000000000000000000000000000000000000000000000000000000000000000073ffffffffffffffffffffffffffffffffffffffff16610a6a610e25565b73ffffffffffffffffffffffffffffffffffffffff1614155b15610aba576040517fe07c8dba00000000000000000000000000000000000000000000000000000000815260040160405180910390fd5b565b610ac4610c6d565b50565b8173ffffffffffffffffffffffffffffffffffffffff166352d1902d6040518163ffffffff1660e01b8152600401602060405180830381865afa925050508015610b2f57506040513d601f19601f82011682018060405250810190610b2c91906119eb565b60015b610b7057816040517f4c9c8ce3000000000000000000000000000000000000000000000000000000008152600401610b67919061168a565b60405180910390fd5b7f360894a13ba1a3210667c828492db98dca3e2076cc3735a920a3ca505d382bbc60001b8114610bd757806040517faa1d49a4000000000000000000000000000000000000000000000000000000008152600401610bce9190611582565b60405180910390fd5b610be18383610e7c565b505050565b7f000000000000000000000000000000000000000000000000000000000000000073ffffffffffffffffffffffffffffffffffffffff163073ffffffffffffffffffffffffffffffffffffffff1614610c6b576040517fe07c8dba00000000000000000000000000000000000000000000000000000000815260040160405180910390fd5b565b610c75610eef565b73ffffffffffffffffffffffffffffffffffffffff16610c936105d0565b73ffffffffffffffffffffffffffffffffffffffff1614610cf257610cb6610eef565b6040517f118cdaa7000000000000000000000000000000000000000000000000000000008152600401610ce9919061168a565b60405180910390fd5b565b6000610cfe610dcb565b905060008160000160009054906101000a900473ffffffffffffffffffffffffffffffffffffffff169050828260000160006101000a81548173ffffffffffffffffffffffffffffffffffffffff021916908373ffffffffffffffffffffffffffffffffffffffff1602179055508273ffffffffffffffffffffffffffffffffffffffff168173ffffffffffffffffffffffffffffffffffffffff167f8be0079c531659141344cd1fd0a4f28419497f9722a3daafe3b4186f6b6457e060405160405180910390a3505050565b60007f9016d09d72d40fdae2fd8ceac6b6234c7706214fd39c1cd1e609a0528c199300905090565b600080610dfe610ef7565b90508091505090565b610e0f610f22565b610e1881610f62565b50565b610e23610f22565b565b6000610e537f360894a13ba1a3210667c828492db98dca3e2076cc3735a920a3ca505d382bbc60001b610fe8565b60000160009054906101000a900473ffffffffffffffffffffffffffffffffffffffff16905090565b610e8582610ff2565b8173ffffffffffffffffffffffffffffffffffffffff167fbc7cd75a20ee27fd9adebab32041f755214dbc6bffa90cc0225b39da2e5c2d3b60405160405180910390a2600081511115610ee257610edc82826110bf565b50610eeb565b610eea611143565b5b5050565b600033905090565b60007ff0c57e16840df040f15088dc2f81fe391c3923bec73e23a9662efc9c229c6a0060001b905090565b610f2a611180565b610f60576040517fd7e6bcf800000000000000000000000000000000000000000000000000000000815260040160405180910390fd5b565b610f6a610f22565b600073ffffffffffffffffffffffffffffffffffffffff168173ffffffffffffffffffffffffffffffffffffffff1603610fdc5760006040517f1e4fbdf7000000000000000000000000000000000000000000000000000000008152600401610fd3919061168a565b60405180910390fd5b610fe581610cf4565b50565b6000819050919050565b60008173ffffffffffffffffffffffffffffffffffffffff163b0361104e57806040517f4c9c8ce3000000000000000000000000000000000000000000000000000000008152600401611045919061168a565b60405180910390fd5b8061107b7f360894a13ba1a3210667c828492db98dca3e2076cc3735a920a3ca505d382bbc60001b610fe8565b60000160006101000a81548173ffffffffffffffffffffffffffffffffffffffff021916908373ffffffffffffffffffffffffffffffffffffffff16021790555050565b60606000808473ffffffffffffffffffffffffffffffffffffffff16846040516110e99190611a5f565b600060405180830381855af49150503d8060008114611124576040519150601f19603f3d011682016040523d82523d6000602084013e611129565b606091505b50915091506111398583836111a0565b9250505092915050565b600034111561117e576040517fb398979f00000000000000000000000000000000000000000000000000000000815260040160405180910390fd5b565b600061118a610df3565b60000160089054906101000a900460ff16905090565b6060826111b5576111b08261122f565b611227565b600082511480156111dd575060008473ffffffffffffffffffffffffffffffffffffffff163b145b1561121f57836040517f9996b315000000000000000000000000000000000000000000000000000000008152600401611216919061168a565b60405180910390fd5b819050611228565b5b9392505050565b60008151111561124157805160208201fd5b6040517fd6bda27500000000000000000000000000000000000000000000000000000000815260040160405180910390fd5b6040518060400160405280611286611299565b8152602001611293611299565b81525090565b604051806040016040528060008152602001600081525090565b6000604051905090565b600080fd5b600080fd5b600073ffffffffffffffffffffffffffffffffffffffff82169050919050565b60006112f2826112c7565b9050919050565b611302816112e7565b811461130d57600080fd5b50565b60008135905061131f816112f9565b92915050565b6000819050919050565b61133881611325565b811461134357600080fd5b50565b6000813590506113558161132f565b92915050565b60008060408385031215611372576113716112bd565b5b600061138085828601611310565b925050602061139185828601611346565b9150509250929050565b60008115159050919050565b6113b08161139b565b82525050565b60006020820190506113cb60008301846113a7565b92915050565b600080fd5b600080fd5b6000601f19601f8301169050919050565b7f4e487b7100000000000000000000000000000000000000000000000000000000600052604160045260246000fd5b611424826113db565b810181811067ffffffffffffffff82111715611443576114426113ec565b5b80604052505050565b60006114566112b3565b9050611462828261141b565b919050565b600067ffffffffffffffff821115611482576114816113ec565b5b61148b826113db565b9050602081019050919050565b82818337600083830152505050565b60006114ba6114b584611467565b61144c565b9050828152602081018484840111156114d6576114d56113d6565b5b6114e1848285611498565b509392505050565b600082601f8301126114fe576114fd6113d1565b5b813561150e8482602086016114a7565b91505092915050565b6000806040838503121561152e5761152d6112bd565b5b600061153c85828601611310565b925050602083013567ffffffffffffffff81111561155d5761155c6112c2565b5b611569858286016114e9565b9150509250929050565b61157c81611325565b82525050565b60006020820190506115976000830184611573565b92915050565b6000602082840312156115b3576115b26112bd565b5b60006115c184828501611346565b91505092915050565b6000819050919050565b6115dd816115ca565b81146115e857600080fd5b50565b6000813590506115fa816115d4565b92915050565b600080600080600060a0868803121561161c5761161b6112bd565b5b600061162a88828901611310565b955050602061163b88828901611310565b945050604061164c88828901611346565b935050606061165d888289016115eb565b925050608061166e88828901611346565b9150509295509295909350565b611684816112e7565b82525050565b600060208201905061169f600083018461167b565b92915050565b600081519050919050565b600082825260208201905092915050565b60005b838110156116df5780820151818401526020810190506116c4565b60008484015250505050565b60006116f6826116a5565b61170081856116b0565b93506117108185602086016116c1565b611719816113db565b840191505092915050565b6000602082019050818103600083015261173e81846116eb565b905092915050565b60006020828403121561175c5761175b6112bd565b5b600061176a84828501611310565b91505092915050565b61177c816115ca565b82525050565b6040820160008201516117986000850182611773565b5060208201516117ab6020850182611773565b50505050565b6080820160008201516117c76000850182611782565b5060208201516117da6040850182611782565b50505050565b60006080820190506117f560008301846117b1565b92915050565b7f56657269706163743a205472616e73616374696f6e20616c726561647920766560008201527f7269666965642e00000000000000000000000000000000000000000000000000602082015250565b60006118576027836116b0565b9150611862826117fb565b604082019050919050565b600060208201905081810360008301526118868161184a565b9050919050565b7f4e487b7100000000000000000000000000000000000000000000000000000000600052601160045260246000fd5b60006118c7826115ca565b91507fffffffffffffffffffffffffffffffffffffffffffffffffffffffffffffffff82036118f9576118f861188d565b5b600182019050919050565b600061190f826115ca565b915061191a836115ca565b92508282019050808211156119325761193161188d565b5b92915050565b611941816115ca565b82525050565b600060208201905061195c6000830184611938565b92915050565b6000819050919050565b600067ffffffffffffffff82169050919050565b6000819050919050565b60006119a56119a061199b84611962565b611980565b61196c565b9050919050565b6119b58161198a565b82525050565b60006020820190506119d060008301846119ac565b92915050565b6000815190506119e58161132f565b92915050565b600060208284031215611a0157611a006112bd565b5b6000611a0f848285016119d6565b91505092915050565b600081519050919050565b600081905092915050565b6000611a3982611a18565b611a438185611a23565b9350611a538185602086016116c1565b80840191505092915050565b6000611a6b8284611a2e565b91508190509291505056fea2646970667358221220ea085a7313f9bb523a6634c8caa22e77f2af7b10a7bc5baf47b1064db198180564736f6c63430008160033",
  "linkReferences": {},
  "deployedLinkReferences": {}
}